{
  "_format": "hh-sol-artifact-1",
  "contractName": "MintableToken",
  "sourceName": "contracts/tests/MintableToken.sol",
  "abi": [
    {
      "inputs": [
        {
          "internalType": "string",
          "name": "name",
          "type": "string"
        },
        {
          "internalType": "string",
          "name": "symbol",
          "type": "string"
        }
      ],
      "stateMutability": "nonpayable",
      "type": "constructor"
    },
    {
      "anonymous": false,
      "inputs": [
        {
          "indexed": true,
          "internalType": "address",
          "name": "owner",
          "type": "address"
        },
        {
          "indexed": true,
          "internalType": "address",
          "name": "spender",
          "type": "address"
        },
        {
          "indexed": false,
          "internalType": "uint256",
          "name": "value",
          "type": "uint256"
        }
      ],
      "name": "Approval",
      "type": "event"
    },
    {
      "anonymous": false,
      "inputs": [
        {
          "indexed": true,
          "internalType": "address",
          "name": "prevOwner",
          "type": "address"
        },
        {
          "indexed": true,
          "internalType": "address",
          "name": "newOwner",
          "type": "address"
        }
      ],
      "name": "OwnerUpdate",
      "type": "event"
    },
    {
      "anonymous": false,
      "inputs": [
        {
          "indexed": true,
          "internalType": "address",
          "name": "from",
          "type": "address"
        },
        {
          "indexed": true,
          "internalType": "address",
          "name": "to",
          "type": "address"
        },
        {
          "indexed": false,
          "internalType": "uint256",
          "name": "value",
          "type": "uint256"
        }
      ],
      "name": "Transfer",
      "type": "event"
    },
    {
      "inputs": [],
      "name": "acceptOwnership",
      "outputs": [],
      "stateMutability": "nonpayable",
      "type": "function"
    },
    {
      "inputs": [
        {
          "internalType": "address",
          "name": "owner",
          "type": "address"
        },
        {
          "internalType": "address",
          "name": "spender",
          "type": "address"
        }
      ],
      "name": "allowance",
      "outputs": [
        {
          "internalType": "uint256",
          "name": "",
          "type": "uint256"
        }
      ],
      "stateMutability": "view",
      "type": "function"
    },
    {
      "inputs": [
        {
          "internalType": "address",
          "name": "spender",
          "type": "address"
        },
        {
          "internalType": "uint256",
          "name": "amount",
          "type": "uint256"
        }
      ],
      "name": "approve",
      "outputs": [
        {
          "internalType": "bool",
          "name": "",
          "type": "bool"
        }
      ],
      "stateMutability": "nonpayable",
      "type": "function"
    },
    {
      "inputs": [
        {
          "internalType": "address",
          "name": "account",
          "type": "address"
        }
      ],
      "name": "balanceOf",
      "outputs": [
        {
          "internalType": "uint256",
          "name": "",
          "type": "uint256"
        }
      ],
      "stateMutability": "view",
      "type": "function"
    },
    {
      "inputs": [],
      "name": "decimals",
      "outputs": [
        {
          "internalType": "uint8",
          "name": "",
          "type": "uint8"
        }
      ],
      "stateMutability": "view",
      "type": "function"
    },
    {
      "inputs": [
        {
          "internalType": "address",
          "name": "spender",
          "type": "address"
        },
        {
          "internalType": "uint256",
          "name": "subtractedValue",
          "type": "uint256"
        }
      ],
      "name": "decreaseAllowance",
      "outputs": [
        {
          "internalType": "bool",
          "name": "",
          "type": "bool"
        }
      ],
      "stateMutability": "nonpayable",
      "type": "function"
    },
    {
      "inputs": [
        {
          "internalType": "address",
          "name": "from",
          "type": "address"
        },
        {
          "internalType": "uint256",
          "name": "amount",
          "type": "uint256"
        }
      ],
      "name": "destroy",
      "outputs": [],
      "stateMutability": "nonpayable",
      "type": "function"
    },
    {
      "inputs": [
        {
          "internalType": "address",
          "name": "spender",
          "type": "address"
        },
        {
          "internalType": "uint256",
          "name": "addedValue",
          "type": "uint256"
        }
      ],
      "name": "increaseAllowance",
      "outputs": [
        {
          "internalType": "bool",
          "name": "",
          "type": "bool"
        }
      ],
      "stateMutability": "nonpayable",
      "type": "function"
    },
    {
      "inputs": [
        {
          "internalType": "address",
          "name": "to",
          "type": "address"
        },
        {
          "internalType": "uint256",
          "name": "amount",
          "type": "uint256"
        }
      ],
      "name": "issue",
      "outputs": [],
      "stateMutability": "nonpayable",
      "type": "function"
    },
    {
      "inputs": [],
      "name": "name",
      "outputs": [
        {
          "internalType": "string",
          "name": "",
          "type": "string"
        }
      ],
      "stateMutability": "view",
      "type": "function"
    },
    {
      "inputs": [],
      "name": "newOwner",
      "outputs": [
        {
          "internalType": "address",
          "name": "",
          "type": "address"
        }
      ],
      "stateMutability": "view",
      "type": "function"
    },
    {
      "inputs": [],
      "name": "owner",
      "outputs": [
        {
          "internalType": "address",
          "name": "",
          "type": "address"
        }
      ],
      "stateMutability": "view",
      "type": "function"
    },
    {
      "inputs": [],
      "name": "symbol",
      "outputs": [
        {
          "internalType": "string",
          "name": "",
          "type": "string"
        }
      ],
      "stateMutability": "view",
      "type": "function"
    },
    {
      "inputs": [],
      "name": "totalSupply",
      "outputs": [
        {
          "internalType": "uint256",
          "name": "",
          "type": "uint256"
        }
      ],
      "stateMutability": "view",
      "type": "function"
    },
    {
      "inputs": [
        {
          "internalType": "address",
          "name": "to",
          "type": "address"
        },
        {
          "internalType": "uint256",
          "name": "value",
          "type": "uint256"
        }
      ],
      "name": "transfer",
      "outputs": [
        {
          "internalType": "bool",
          "name": "",
          "type": "bool"
        }
      ],
      "stateMutability": "nonpayable",
      "type": "function"
    },
    {
      "inputs": [
        {
          "internalType": "address",
          "name": "from",
          "type": "address"
        },
        {
          "internalType": "address",
          "name": "to",
          "type": "address"
        },
        {
          "internalType": "uint256",
          "name": "value",
          "type": "uint256"
        }
      ],
      "name": "transferFrom",
      "outputs": [
        {
          "internalType": "bool",
          "name": "",
          "type": "bool"
        }
      ],
      "stateMutability": "nonpayable",
      "type": "function"
    },
    {
      "inputs": [
        {
          "internalType": "address",
          "name": "newOwnerCandidate",
          "type": "address"
        }
      ],
      "name": "transferOwnership",
      "outputs": [],
      "stateMutability": "nonpayable",
      "type": "function"
    },
    {
      "inputs": [],
      "name": "transfersEnabled",
      "outputs": [
        {
          "internalType": "bool",
          "name": "",
          "type": "bool"
        }
      ],
      "stateMutability": "view",
      "type": "function"
    }
  ],
  "bytecode": "0x60806040526006805460ff60a01b1916600160a01b1790553480156200002457600080fd5b50604051620013aa380380620013aa833981810160405260408110156200004a57600080fd5b81019080805160405193929190846401000000008211156200006b57600080fd5b9083019060208201858111156200008157600080fd5b82516401000000008111828201881017156200009c57600080fd5b82525081516020918201929091019080838360005b83811015620000cb578181015183820152602001620000b1565b50505050905090810190601f168015620000f95780820380516001836020036101000a031916815260200191505b50604052602001805160405193929190846401000000008211156200011d57600080fd5b9083019060208201858111156200013357600080fd5b82516401000000008111828201881017156200014e57600080fd5b82525081516020918201929091019080838360005b838110156200017d57818101518382015260200162000163565b50505050905090810190601f168015620001ab5780820380516001836020036101000a031916815260200191505b50604052505082518391508290620001cb9060039060208501906200020d565b508051620001e19060049060208401906200020d565b505060058054601260ff1990911617610100600160a81b031916610100330217905550620002a9915050565b828054600181600116156101000203166002900490600052602060002090601f016020900481019282601f106200025057805160ff191683800117855562000280565b8280016001018555821562000280579182015b828111156200028057825182559160200191906001019062000263565b506200028e92915062000292565b5090565b5b808211156200028e576000815560010162000293565b6110f180620002b96000396000f3fe608060405234801561001057600080fd5b50600436106101165760003560e01c80638da5cb5b116100a2578063a9059cbb11610071578063a9059cbb14610352578063bef97c871461037e578063d4ee1d9014610386578063dd62ed3e1461038e578063f2fde38b146103bc57610116565b80638da5cb5b146102ce57806395d89b41146102f2578063a24835d1146102fa578063a457c2d71461032657610116565b8063313ce567116100e9578063313ce56714610228578063395093511461024657806370a082311461027257806379ba509714610298578063867904b4146102a257610116565b806306fdde031461011b578063095ea7b31461019857806318160ddd146101d857806323b872dd146101f2575b600080fd5b6101236103e2565b6040805160208082528351818301528351919283929083019185019080838360005b8381101561015d578181015183820152602001610145565b50505050905090810190601f16801561018a5780820380516001836020036101000a031916815260200191505b509250505060405180910390f35b6101c4600480360360408110156101ae57600080fd5b506001600160a01b038135169060200135610478565b604080519115158252519081900360200190f35b6101e0610495565b60408051918252519081900360200190f35b6101c46004803603606081101561020857600080fd5b506001600160a01b0381358116916020810135909116906040013561049b565b610230610508565b6040805160ff9092168252519081900360200190f35b6101c46004803603604081101561025c57600080fd5b506001600160a01b038135169060200135610511565b6101e06004803603602081101561028857600080fd5b50356001600160a01b0316610564565b6102a061057f565b005b6102a0600480360360408110156102b857600080fd5b506001600160a01b038135169060200135610649565b6102d66106af565b604080516001600160a01b039092168252519081900360200190f35b6101236106c3565b6102a06004803603604081101561031057600080fd5b506001600160a01b038135169060200135610724565b6101c46004803603604081101561033c57600080fd5b506001600160a01b038135169060200135610786565b6101c46004803603604081101561036857600080fd5b506001600160a01b0381351690602001356107ee565b6101c4610859565b6102d6610869565b6101e0600480360360408110156103a457600080fd5b506001600160a01b0381358116916020013516610878565b6102a0600480360360208110156103d257600080fd5b50356001600160a01b03166108a3565b60038054604080516020601f600260001961010060018816150201909516949094049384018190048102820181019092528281526060939092909183018282801561046e5780601f106104435761010080835404028352916020019161046e565b820191906000526020600020905b81548152906001019060200180831161045157829003601f168201915b5050505050905090565b600061048c610485610976565b848461097a565b50600192915050565b60025490565b600654600090600160a01b900460ff166104f5576040805162461bcd60e51b815260206004820152601660248201527511549497d514905394d1915494d7d11254d05093115160521b604482015290519081900360640190fd5b610500848484610a66565b949350505050565b60055460ff1690565b600061048c61051e610976565b8461055f856001600061052f610976565b6001600160a01b03908116825260208083019390935260409182016000908120918c168152925290205490610ae8565b61097a565b6001600160a01b031660009081526020819052604090205490565b6006546001600160a01b031633146105d2576040805162461bcd60e51b815260206004820152601160248201527011549497d050d0d154d4d7d11153925151607a1b604482015290519081900360640190fd5b6006546005546040516001600160a01b0392831692610100909204909116907f343765429aea5a34b3ff6a3785a98a5abb2597aca87bfbb58632c173d585373a90600090a36006805460058054610100600160a81b0319166101006001600160a01b038416021790556001600160a01b0319169055565b60055461010090046001600160a01b031633146106a1576040805162461bcd60e51b815260206004820152601160248201527011549497d050d0d154d4d7d11153925151607a1b604482015290519081900360640190fd5b6106ab8282610b42565b5050565b60055461010090046001600160a01b031681565b60048054604080516020601f600260001961010060018816150201909516949094049384018190048102820181019092528281526060939092909183018282801561046e5780601f106104435761010080835404028352916020019161046e565b60055461010090046001600160a01b0316331461077c576040805162461bcd60e51b815260206004820152601160248201527011549497d050d0d154d4d7d11153925151607a1b604482015290519081900360640190fd5b6106ab8282610c32565b600061048c610793610976565b8461055f8560405180606001604052806025815260200161109760259139600160006107bd610976565b6001600160a01b03908116825260208083019390935260409182016000908120918d16815292529020549190610d2e565b600654600090600160a01b900460ff16610848576040805162461bcd60e51b815260206004820152601660248201527511549497d514905394d1915494d7d11254d05093115160521b604482015290519081900360640190fd5b6108528383610dc5565b9392505050565b600654600160a01b900460ff1681565b6006546001600160a01b031681565b6001600160a01b03918216600090815260016020908152604080832093909416825291909152205490565b60055461010090046001600160a01b031633146108fb576040805162461bcd60e51b815260206004820152601160248201527011549497d050d0d154d4d7d11153925151607a1b604482015290519081900360640190fd5b6005546001600160a01b03828116610100909204161415610954576040805162461bcd60e51b815260206004820152600e60248201526d22a9292fa9a0a6a2afa7aba722a960911b604482015290519081900360640190fd5b600680546001600160a01b0319166001600160a01b0392909216919091179055565b3390565b6001600160a01b0383166109bf5760405162461bcd60e51b81526004018080602001828103825260248152602001806110736024913960400191505060405180910390fd5b6001600160a01b038216610a045760405162461bcd60e51b8152600401808060200182810382526022815260200180610fbd6022913960400191505060405180910390fd5b6001600160a01b03808416600081815260016020908152604080832094871680845294825291829020859055815185815291517f8c5be1e5ebec7d5bd14f71427d1e84f3dd0314c0f7b2291e5b200ac8c7c3b9259281900390910190a3505050565b6000610a73848484610dd5565b610ade84610a7f610976565b61055f85604051806060016040528060288152602001611005602891396001600160a01b038a16600090815260016020526040812090610abd610976565b6001600160a01b031681526020810191909152604001600020549190610d2e565b5060019392505050565b600082820183811015610852576040805162461bcd60e51b815260206004820152601b60248201527f536166654d6174683a206164646974696f6e206f766572666c6f770000000000604482015290519081900360640190fd5b6001600160a01b038216610b9d576040805162461bcd60e51b815260206004820152601f60248201527f45524332303a206d696e7420746f20746865207a65726f206164647265737300604482015290519081900360640190fd5b610ba960008383610f30565b600254610bb69082610ae8565b6002556001600160a01b038216600090815260208190526040902054610bdc9082610ae8565b6001600160a01b0383166000818152602081815260408083209490945583518581529351929391927fddf252ad1be2c89b69c2b068fc378daa952ba7f163c4a11628f55a4df523b3ef9281900390910190a35050565b6001600160a01b038216610c775760405162461bcd60e51b815260040180806020018281038252602181526020018061102d6021913960400191505060405180910390fd5b610c8382600083610f30565b610cc081604051806060016040528060228152602001610f9b602291396001600160a01b0385166000908152602081905260409020549190610d2e565b6001600160a01b038316600090815260208190526040902055600254610ce69082610f35565b6002556040805182815290516000916001600160a01b038516917fddf252ad1be2c89b69c2b068fc378daa952ba7f163c4a11628f55a4df523b3ef9181900360200190a35050565b60008184841115610dbd5760405162461bcd60e51b81526004018080602001828103825283818151815260200191508051906020019080838360005b83811015610d82578181015183820152602001610d6a565b50505050905090810190601f168015610daf5780820380516001836020036101000a031916815260200191505b509250505060405180910390fd5b505050900390565b600061048c610dd2610976565b84845b6001600160a01b038316610e1a5760405162461bcd60e51b815260040180806020018281038252602581526020018061104e6025913960400191505060405180910390fd5b6001600160a01b038216610e5f5760405162461bcd60e51b8152600401808060200182810382526023815260200180610f786023913960400191505060405180910390fd5b610e6a838383610f30565b610ea781604051806060016040528060268152602001610fdf602691396001600160a01b0386166000908152602081905260409020549190610d2e565b6001600160a01b038085166000908152602081905260408082209390935590841681522054610ed69082610ae8565b6001600160a01b038084166000818152602081815260409182902094909455805185815290519193928716927fddf252ad1be2c89b69c2b068fc378daa952ba7f163c4a11628f55a4df523b3ef92918290030190a3505050565b505050565b600061085283836040518060400160405280601e81526020017f536166654d6174683a207375627472616374696f6e206f766572666c6f770000815250610d2e56fe45524332303a207472616e7366657220746f20746865207a65726f206164647265737345524332303a206275726e20616d6f756e7420657863656564732062616c616e636545524332303a20617070726f766520746f20746865207a65726f206164647265737345524332303a207472616e7366657220616d6f756e7420657863656564732062616c616e636545524332303a207472616e7366657220616d6f756e74206578636565647320616c6c6f77616e636545524332303a206275726e2066726f6d20746865207a65726f206164647265737345524332303a207472616e736665722066726f6d20746865207a65726f206164647265737345524332303a20617070726f76652066726f6d20746865207a65726f206164647265737345524332303a2064656372656173656420616c6c6f77616e63652062656c6f77207a65726fa264697066735822122085e3dde2444a84d751edbe79461135f512ba2ef6584e88e9c0b6e1c19b724fc564736f6c634300060c0033",
  "linkReferences": {},
  "deployedLinkReferences": {}
}